{
  "contractName": "Address",
  "abi": [
    {
      "inputs": [
        {
          "internalType": "address",
          "name": "userAddress",
          "type": "address"
        }
      ],
      "name": "setAddresses",
      "outputs": [],
      "stateMutability": "nonpayable",
      "type": "function"
    },
    {
      "inputs": [
        {
          "internalType": "address",
          "name": "userAddress",
          "type": "address"
        }
      ],
      "name": "getIdAddress",
      "outputs": [
        {
          "internalType": "uint256",
          "name": "",
          "type": "uint256"
        }
      ],
      "stateMutability": "view",
      "type": "function",
      "constant": true
    },
    {
      "inputs": [],
      "name": "getAllAddresses",
      "outputs": [
        {
          "internalType": "address[]",
          "name": "",
          "type": "address[]"
        }
      ],
      "stateMutability": "view",
      "type": "function",
      "constant": true
    }
  ],
  "bytecode": "0x608060405234801561001057600080fd5b50610561806100206000396000f3fe608060405234801561001057600080fd5b50600436106100415760003560e01c8063583ff0d61461004657806381d3c435146100765780639516a10414610092575b600080fd5b610060600480360381019061005b9190610314565b6100b0565b60405161006d919061035a565b60405180910390f35b610090600480360381019061008b9190610314565b61014a565b005b61009a6101b8565b6040516100a79190610433565b60405180910390f35b600080600090505b6001548111610143578273ffffffffffffffffffffffffffffffffffffffff1660008083815260200190815260200160002060009054906101000a900473ffffffffffffffffffffffffffffffffffffffff1673ffffffffffffffffffffffffffffffffffffffff1614156101305780915050610145565b808061013b90610484565b9150506100b8565b505b919050565b80600080600154815260200190815260200160002060006101000a81548173ffffffffffffffffffffffffffffffffffffffff021916908373ffffffffffffffffffffffffffffffffffffffff160217905550600160008154809291906101b090610484565b919050555050565b6060600060015467ffffffffffffffff8111156101d8576101d76104cd565b5b6040519080825280602002602001820160405280156102065781602001602082028036833780820191505090505b50905060005b6001548110156102a95760008082815260200190815260200160002060009054906101000a900473ffffffffffffffffffffffffffffffffffffffff1682828151811061025c5761025b6104fc565b5b602002602001019073ffffffffffffffffffffffffffffffffffffffff16908173ffffffffffffffffffffffffffffffffffffffff168152505080806102a190610484565b91505061020c565b508091505090565b600080fd5b600073ffffffffffffffffffffffffffffffffffffffff82169050919050565b60006102e1826102b6565b9050919050565b6102f1816102d6565b81146102fc57600080fd5b50565b60008135905061030e816102e8565b92915050565b60006020828403121561032a576103296102b1565b5b6000610338848285016102ff565b91505092915050565b6000819050919050565b61035481610341565b82525050565b600060208201905061036f600083018461034b565b92915050565b600081519050919050565b600082825260208201905092915050565b6000819050602082019050919050565b6103aa816102d6565b82525050565b60006103bc83836103a1565b60208301905092915050565b6000602082019050919050565b60006103e082610375565b6103ea8185610380565b93506103f583610391565b8060005b8381101561042657815161040d88826103b0565b9750610418836103c8565b9250506001810190506103f9565b5085935050505092915050565b6000602082019050818103600083015261044d81846103d5565b905092915050565b7f4e487b7100000000000000000000000000000000000000000000000000000000600052601160045260246000fd5b600061048f82610341565b91507fffffffffffffffffffffffffffffffffffffffffffffffffffffffffffffffff8214156104c2576104c1610455565b5b600182019050919050565b7f4e487b7100000000000000000000000000000000000000000000000000000000600052604160045260246000fd5b7f4e487b7100000000000000000000000000000000000000000000000000000000600052603260045260246000fdfea26469706673582212201b2e185e1ec583774755a46e231bd4d777f638c10d18ea2946cb47d1f301626064736f6c634300080b0033",
  "immutableReferences": {},
  "source": "// SPDX-License-Identifier: MIT\npragma solidity >=0.4.22 <0.9.0;\n\ncontract Address {\n  mapping(uint=>address) addresses;\n  uint count;\n\n  function setAddresses(address userAddress) public {\n    addresses[count] = userAddress;\n    count++;\n  }\n\n  function getIdAddress(address userAddress) public view returns (uint) {\n    for (uint i = 0; i <= count; i++) {\n      if(addresses[i] == userAddress)\n        return i;\n    }\n  }\n\n  function getAllAddresses() public view returns (address[] memory) {\n    address[] memory all = new address[](count);\n    for (uint256 i = 0; i < count; i++) {\n      all[i] = addresses[i];\n    }\n    return all;\n  }\n}\n",
  "sourcePath": "D:\\Solidity\\notes\\contracts\\Address.sol",
  "compiler": {
    "name": "solc",
    "version": "0.8.11+commit.d7f03943.Emscripten.clang"
  },
  "schemaVersion": "3.4.4",
  "updatedAt": "2022-01-29T13:15:46.056Z",
  "networkType": "ethereum",
  "devdoc": {
    "kind": "dev",
    "methods": {},
    "version": 1
  },
  "userdoc": {
    "kind": "user",
    "methods": {},
    "version": 1
  }
}