{
  "contractName": "Grades",
  "abi": [
    {
      "inputs": [
        {
          "internalType": "string",
          "name": "",
          "type": "string"
        }
      ],
      "name": "results",
      "outputs": [
        {
          "internalType": "uint256",
          "name": "amount",
          "type": "uint256"
        },
        {
          "internalType": "uint256",
          "name": "sum",
          "type": "uint256"
        },
        {
          "internalType": "uint256",
          "name": "average",
          "type": "uint256"
        }
      ],
      "stateMutability": "view",
      "type": "function"
    },
    {
      "inputs": [
        {
          "internalType": "string",
          "name": "title",
          "type": "string"
        },
        {
          "internalType": "uint256",
          "name": "grade",
          "type": "uint256"
        }
      ],
      "name": "MyGrade",
      "outputs": [],
      "stateMutability": "nonpayable",
      "type": "function"
    }
  ],
  "bytecode": "0x608060405234801561001057600080fd5b506106eb806100206000396000f3fe608060405234801561001057600080fd5b50600436106100365760003560e01c80634b13d17d1461003b578063feef49641461006d575b600080fd5b61005560048036038101906100509190610358565b610089565b604051610064939291906103ba565b60405180910390f35b6100876004803603810190610082919061041d565b6100c9565b005b6000818051602081018201805184825260208301602085012081835280955050505050506000915090508060000154908060010154908060020154905083565b6000811180156100d95750600b81105b610118576040517f08c379a000000000000000000000000000000000000000000000000000000000815260040161010f906104d6565b60405180910390fd5b6000826040516101289190610570565b9081526020016040518091039020600001600081548092919061014a906105b6565b9190505550806000836040516101609190610570565b9081526020016040518091039020600101600082825461018091906105ff565b925050819055506000826040516101979190610570565b9081526020016040518091039020600001546000836040516101b99190610570565b9081526020016040518091039020600101546101d59190610684565b6000836040516101e59190610570565b9081526020016040518091039020600201819055505050565b6000604051905090565b600080fd5b600080fd5b600080fd5b600080fd5b6000601f19601f8301169050919050565b7f4e487b7100000000000000000000000000000000000000000000000000000000600052604160045260246000fd5b6102658261021c565b810181811067ffffffffffffffff821117156102845761028361022d565b5b80604052505050565b60006102976101fe565b90506102a3828261025c565b919050565b600067ffffffffffffffff8211156102c3576102c261022d565b5b6102cc8261021c565b9050602081019050919050565b82818337600083830152505050565b60006102fb6102f6846102a8565b61028d565b90508281526020810184848401111561031757610316610217565b5b6103228482856102d9565b509392505050565b600082601f83011261033f5761033e610212565b5b813561034f8482602086016102e8565b91505092915050565b60006020828403121561036e5761036d610208565b5b600082013567ffffffffffffffff81111561038c5761038b61020d565b5b6103988482850161032a565b91505092915050565b6000819050919050565b6103b4816103a1565b82525050565b60006060820190506103cf60008301866103ab565b6103dc60208301856103ab565b6103e960408301846103ab565b949350505050565b6103fa816103a1565b811461040557600080fd5b50565b600081359050610417816103f1565b92915050565b6000806040838503121561043457610433610208565b5b600083013567ffffffffffffffff8111156104525761045161020d565b5b61045e8582860161032a565b925050602061046f85828601610408565b9150509250929050565b600082825260208201905092915050565b7f696d706f737369626c652073636f7265206e756d626572000000000000000000600082015250565b60006104c0601783610479565b91506104cb8261048a565b602082019050919050565b600060208201905081810360008301526104ef816104b3565b9050919050565b600081519050919050565b600081905092915050565b60005b8381101561052a57808201518184015260208101905061050f565b83811115610539576000848401525b50505050565b600061054a826104f6565b6105548185610501565b935061056481856020860161050c565b80840191505092915050565b600061057c828461053f565b915081905092915050565b7f4e487b7100000000000000000000000000000000000000000000000000000000600052601160045260246000fd5b60006105c1826103a1565b91507fffffffffffffffffffffffffffffffffffffffffffffffffffffffffffffffff8214156105f4576105f3610587565b5b600182019050919050565b600061060a826103a1565b9150610615836103a1565b9250827fffffffffffffffffffffffffffffffffffffffffffffffffffffffffffffffff0382111561064a57610649610587565b5b828201905092915050565b7f4e487b7100000000000000000000000000000000000000000000000000000000600052601260045260246000fd5b600061068f826103a1565b915061069a836103a1565b9250826106aa576106a9610655565b5b82820490509291505056fea264697066735822122051beedeb82bcc60310ee1d511836b1507e9ce22966f306f5b5b6265794f2cca264736f6c634300080b0033",
  "immutableReferences": {},
  "source": "// SPDX-License-Identifier: MIT\r\npragma solidity >=0.4.22 <0.9.0;\r\n\r\ncontract Grades {\r\n  struct Calc {\r\n    uint amount;\r\n    uint sum;\r\n    uint average;\r\n  }\r\n\r\n  mapping(string => Calc) public results;\r\n\r\n  function MyGrade (string memory title, uint grade) public {\r\n    require(grade > 0 && grade < 11, \"impossible score number\");\r\n    results[title].amount++;\r\n    results[title].sum += grade;\r\n    results[title].average = uint(results[title].sum/results[title].amount);\r\n  }\r\n\r\n}\r\n",
  "sourcePath": "D:\\Solidity\\notes\\contracts\\Grades.sol",
  "compiler": {
    "name": "solc",
    "version": "0.8.11+commit.d7f03943.Emscripten.clang"
  },
  "schemaVersion": "3.4.4",
  "updatedAt": "2022-01-29T13:33:21.004Z",
  "devdoc": {
    "kind": "dev",
    "methods": {},
    "version": 1
  },
  "userdoc": {
    "kind": "user",
    "methods": {},
    "version": 1
  }
}