{
  "contractName": "NewNote",
  "abi": [
    {
      "inputs": [
        {
          "internalType": "string",
          "name": "",
          "type": "string"
        }
      ],
      "name": "users",
      "outputs": [
        {
          "internalType": "string",
          "name": "name",
          "type": "string"
        },
        {
          "internalType": "string",
          "name": "adress",
          "type": "string"
        },
        {
          "internalType": "uint256",
          "name": "number",
          "type": "uint256"
        }
      ],
      "stateMutability": "view",
      "type": "function"
    },
    {
      "inputs": [
        {
          "internalType": "string",
          "name": "name",
          "type": "string"
        },
        {
          "internalType": "string",
          "name": "adress",
          "type": "string"
        },
        {
          "internalType": "uint256",
          "name": "number",
          "type": "uint256"
        }
      ],
      "name": "setUser",
      "outputs": [],
      "stateMutability": "nonpayable",
      "type": "function"
    },
    {
      "inputs": [
        {
          "internalType": "string",
          "name": "name",
          "type": "string"
        }
      ],
      "name": "getUser",
      "outputs": [
        {
          "internalType": "string",
          "name": "adress",
          "type": "string"
        },
        {
          "internalType": "uint256",
          "name": "number",
          "type": "uint256"
        }
      ],
      "stateMutability": "view",
      "type": "function"
    }
  ],
  "bytecode": "0x608060405234801561001057600080fd5b50610872806100206000396000f3fe608060405234801561001057600080fd5b50600436106100415760003560e01c806331feb67114610046578063689e1c0314610077578063b0147f80146100a9575b600080fd5b610060600480360381019061005b9190610572565b6100c5565b60405161006e92919061065c565b60405180910390f35b610091600480360381019061008c9190610572565b6101a0565b6040516100a09392919061068c565b60405180910390f35b6100c360048036038101906100be91906106fd565b6102f0565b005b6060600080836040516100d891906107c4565b90815260200160405180910390206000016000846040516100f991906107c4565b9081526020016040518091039020600201548180546101179061080a565b80601f01602080910402602001604051908101604052809291908181526020018280546101439061080a565b80156101905780601f1061016557610100808354040283529160200191610190565b820191906000526020600020905b81548152906001019060200180831161017357829003601f168201915b5050505050915091509150915091565b6000818051602081018201805184825260208301602085012081835280955050505050506000915090508060000180546101d99061080a565b80601f01602080910402602001604051908101604052809291908181526020018280546102059061080a565b80156102525780601f1061022757610100808354040283529160200191610252565b820191906000526020600020905b81548152906001019060200180831161023557829003601f168201915b5050505050908060010180546102679061080a565b80601f01602080910402602001604051908101604052809291908181526020018280546102939061080a565b80156102e05780601f106102b5576101008083540402835291602001916102e0565b820191906000526020600020905b8154815290600101906020018083116102c357829003601f168201915b5050505050908060020154905083565b60405180606001604052808481526020018381526020018281525060008460405161031b91906107c4565b90815260200160405180910390206000820151816000019080519060200190610345929190610375565b506020820151816001019080519060200190610362929190610375565b5060408201518160020155905050505050565b8280546103819061080a565b90600052602060002090601f0160209004810192826103a357600085556103ea565b82601f106103bc57805160ff19168380011785556103ea565b828001600101855582156103ea579182015b828111156103e95782518255916020019190600101906103ce565b5b5090506103f791906103fb565b5090565b5b808211156104145760008160009055506001016103fc565b5090565b6000604051905090565b600080fd5b600080fd5b600080fd5b600080fd5b6000601f19601f8301169050919050565b7f4e487b7100000000000000000000000000000000000000000000000000000000600052604160045260246000fd5b61047f82610436565b810181811067ffffffffffffffff8211171561049e5761049d610447565b5b80604052505050565b60006104b1610418565b90506104bd8282610476565b919050565b600067ffffffffffffffff8211156104dd576104dc610447565b5b6104e682610436565b9050602081019050919050565b82818337600083830152505050565b6000610515610510846104c2565b6104a7565b90508281526020810184848401111561053157610530610431565b5b61053c8482856104f3565b509392505050565b600082601f8301126105595761055861042c565b5b8135610569848260208601610502565b91505092915050565b60006020828403121561058857610587610422565b5b600082013567ffffffffffffffff8111156105a6576105a5610427565b5b6105b284828501610544565b91505092915050565b600081519050919050565b600082825260208201905092915050565b60005b838110156105f55780820151818401526020810190506105da565b83811115610604576000848401525b50505050565b6000610615826105bb565b61061f81856105c6565b935061062f8185602086016105d7565b61063881610436565b840191505092915050565b6000819050919050565b61065681610643565b82525050565b60006040820190508181036000830152610676818561060a565b9050610685602083018461064d565b9392505050565b600060608201905081810360008301526106a6818661060a565b905081810360208301526106ba818561060a565b90506106c9604083018461064d565b949350505050565b6106da81610643565b81146106e557600080fd5b50565b6000813590506106f7816106d1565b92915050565b60008060006060848603121561071657610715610422565b5b600084013567ffffffffffffffff81111561073457610733610427565b5b61074086828701610544565b935050602084013567ffffffffffffffff81111561076157610760610427565b5b61076d86828701610544565b925050604061077e868287016106e8565b9150509250925092565b600081905092915050565b600061079e826105bb565b6107a88185610788565b93506107b88185602086016105d7565b80840191505092915050565b60006107d08284610793565b915081905092915050565b7f4e487b7100000000000000000000000000000000000000000000000000000000600052602260045260246000fd5b6000600282049050600182168061082257607f821691505b60208210811415610836576108356107db565b5b5091905056fea2646970667358221220c1eb947c02484a988325427e9f0e83a1a72945849482c25addbbf32a2780390d64736f6c634300080b0033",
  "immutableReferences": {},
  "source": "// SPDX-License-Identifier: MIT\r\npragma solidity >=0.4.22 <0.9.0;\r\n\r\ncontract NewNote {\r\n  struct user {\r\n    string name;\r\n    string adress;\r\n    uint number;\r\n  }\r\n\r\n  mapping(string => user) public users;\r\n\r\n  function setUser(string memory name, string memory adress, uint number) public {\r\n    users[name] = user(name, adress, number);\r\n  }\r\n\r\n  function getUser(string memory name) public view returns(string memory adress, uint number) {\r\n    return(users[name].name, users[name].number);\r\n  }\r\n}\r\n",
  "sourcePath": "D:\\Solidity\\notes\\contracts\\NewNote.sol",
  "compiler": {
    "name": "solc",
    "version": "0.8.11+commit.d7f03943.Emscripten.clang"
  },
  "schemaVersion": "3.4.4",
  "updatedAt": "2022-01-29T13:15:41.811Z",
  "devdoc": {
    "kind": "dev",
    "methods": {},
    "version": 1
  },
  "userdoc": {
    "kind": "user",
    "methods": {},
    "version": 1
  }
}