{
  "contractName": "Note",
  "abi": [
    {
      "inputs": [],
      "name": "adress",
      "outputs": [
        {
          "internalType": "string",
          "name": "",
          "type": "string"
        }
      ],
      "stateMutability": "view",
      "type": "function"
    },
    {
      "inputs": [],
      "name": "name",
      "outputs": [
        {
          "internalType": "string",
          "name": "",
          "type": "string"
        }
      ],
      "stateMutability": "view",
      "type": "function"
    },
    {
      "inputs": [
        {
          "internalType": "string",
          "name": "_name",
          "type": "string"
        },
        {
          "internalType": "string",
          "name": "_adress",
          "type": "string"
        },
        {
          "internalType": "uint256",
          "name": "_number",
          "type": "uint256"
        }
      ],
      "name": "setNote",
      "outputs": [],
      "stateMutability": "nonpayable",
      "type": "function"
    },
    {
      "inputs": [],
      "name": "getNote",
      "outputs": [
        {
          "internalType": "string",
          "name": "",
          "type": "string"
        },
        {
          "internalType": "string",
          "name": "",
          "type": "string"
        },
        {
          "internalType": "uint256",
          "name": "",
          "type": "uint256"
        }
      ],
      "stateMutability": "view",
      "type": "function"
    }
  ],
  "bytecode": "0x608060405234801561001057600080fd5b506107a0806100206000396000f3fe608060405234801561001057600080fd5b506004361061004c5760003560e01c806306fdde031461005157806327b51db21461006f5780638c878f381461008b578063df3ac476146100a9575b600080fd5b6100596100c9565b6040516100669190610489565b60405180910390f35b6100896004803603810190610084919061062a565b610157565b005b610093610191565b6040516100a09190610489565b60405180910390f35b6100b161021f565b6040516100c0939291906106c4565b60405180910390f35b600080546100d690610738565b80601f016020809104026020016040519081016040528092919081815260200182805461010290610738565b801561014f5780601f106101245761010080835404028352916020019161014f565b820191906000526020600020905b81548152906001019060200180831161013257829003601f168201915b505050505081565b826000908051906020019061016d92919061034d565b50816001908051906020019061018492919061034d565b5080600281905550505050565b6001805461019e90610738565b80601f01602080910402602001604051908101604052809291908181526020018280546101ca90610738565b80156102175780601f106101ec57610100808354040283529160200191610217565b820191906000526020600020905b8154815290600101906020018083116101fa57829003601f168201915b505050505081565b606080600080600160025482805461023690610738565b80601f016020809104026020016040519081016040528092919081815260200182805461026290610738565b80156102af5780601f10610284576101008083540402835291602001916102af565b820191906000526020600020905b81548152906001019060200180831161029257829003601f168201915b505050505092508180546102c290610738565b80601f01602080910402602001604051908101604052809291908181526020018280546102ee90610738565b801561033b5780601f106103105761010080835404028352916020019161033b565b820191906000526020600020905b81548152906001019060200180831161031e57829003601f168201915b50505050509150925092509250909192565b82805461035990610738565b90600052602060002090601f01602090048101928261037b57600085556103c2565b82601f1061039457805160ff19168380011785556103c2565b828001600101855582156103c2579182015b828111156103c15782518255916020019190600101906103a6565b5b5090506103cf91906103d3565b5090565b5b808211156103ec5760008160009055506001016103d4565b5090565b600081519050919050565b600082825260208201905092915050565b60005b8381101561042a57808201518184015260208101905061040f565b83811115610439576000848401525b50505050565b6000601f19601f8301169050919050565b600061045b826103f0565b61046581856103fb565b935061047581856020860161040c565b61047e8161043f565b840191505092915050565b600060208201905081810360008301526104a38184610450565b905092915050565b6000604051905090565b600080fd5b600080fd5b600080fd5b600080fd5b7f4e487b7100000000000000000000000000000000000000000000000000000000600052604160045260246000fd5b6105018261043f565b810181811067ffffffffffffffff821117156105205761051f6104c9565b5b80604052505050565b60006105336104ab565b905061053f82826104f8565b919050565b600067ffffffffffffffff82111561055f5761055e6104c9565b5b6105688261043f565b9050602081019050919050565b82818337600083830152505050565b600061059761059284610544565b610529565b9050828152602081018484840111156105b3576105b26104c4565b5b6105be848285610575565b509392505050565b600082601f8301126105db576105da6104bf565b5b81356105eb848260208601610584565b91505092915050565b6000819050919050565b610607816105f4565b811461061257600080fd5b50565b600081359050610624816105fe565b92915050565b600080600060608486031215610643576106426104b5565b5b600084013567ffffffffffffffff811115610661576106606104ba565b5b61066d868287016105c6565b935050602084013567ffffffffffffffff81111561068e5761068d6104ba565b5b61069a868287016105c6565b92505060406106ab86828701610615565b9150509250925092565b6106be816105f4565b82525050565b600060608201905081810360008301526106de8186610450565b905081810360208301526106f28185610450565b905061070160408301846106b5565b949350505050565b7f4e487b7100000000000000000000000000000000000000000000000000000000600052602260045260246000fd5b6000600282049050600182168061075057607f821691505b6020821081141561076457610763610709565b5b5091905056fea26469706673582212207e257ab3a359d07fb1f8b35a3cd5127f1398d4dd684922f781315b5a320e6c7b64736f6c634300080b0033",
  "immutableReferences": {},
  "source": "// SPDX-License-Identifier: MIT\npragma solidity >=0.4.22 <0.9.0;\n\ncontract Note {\n  string public name;\n  string public adress;\n  uint number;\n\n  function setNote(string memory _name, string memory _adress, uint _number) public {\n    name = _name;\n    adress = _adress;\n    number = _number;\n  }\n\n  function getNote() public view returns(string memory, string memory, uint) {\n    return(name, adress, number);\n  }\n}\n",
  "sourcePath": "E:\\Solidity\\Notes\\contracts\\Note.sol",
  "compiler": {
    "name": "solc",
    "version": "0.8.11+commit.d7f03943.Emscripten.clang"
  },
  "schemaVersion": "3.4.4",
  "updatedAt": "2022-01-27T09:02:43.825Z",
  "devdoc": {
    "kind": "dev",
    "methods": {},
    "version": 1
  },
  "userdoc": {
    "kind": "user",
    "methods": {},
    "version": 1
  }
}