{
  "contractName": "Owner",
  "abi": [
    {
      "inputs": [],
      "stateMutability": "nonpayable",
      "type": "constructor"
    },
    {
      "inputs": [
        {
          "internalType": "string",
          "name": "",
          "type": "string"
        }
      ],
      "name": "users",
      "outputs": [
        {
          "internalType": "string",
          "name": "name",
          "type": "string"
        },
        {
          "internalType": "uint256",
          "name": "number",
          "type": "uint256"
        },
        {
          "internalType": "uint256",
          "name": "age",
          "type": "uint256"
        }
      ],
      "stateMutability": "view",
      "type": "function"
    },
    {
      "inputs": [
        {
          "internalType": "string",
          "name": "name",
          "type": "string"
        },
        {
          "internalType": "uint256",
          "name": "number",
          "type": "uint256"
        },
        {
          "internalType": "uint256",
          "name": "age",
          "type": "uint256"
        }
      ],
      "name": "setUser",
      "outputs": [],
      "stateMutability": "nonpayable",
      "type": "function"
    },
    {
      "inputs": [
        {
          "internalType": "string",
          "name": "name",
          "type": "string"
        }
      ],
      "name": "getUser",
      "outputs": [
        {
          "internalType": "uint256",
          "name": "number",
          "type": "uint256"
        },
        {
          "internalType": "uint256",
          "name": "age",
          "type": "uint256"
        }
      ],
      "stateMutability": "view",
      "type": "function"
    }
  ],
  "bytecode": "0x608060405234801561001057600080fd5b50336000806101000a81548173ffffffffffffffffffffffffffffffffffffffff021916908373ffffffffffffffffffffffffffffffffffffffff1602179055506108aa806100606000396000f3fe608060405234801561001057600080fd5b50600436106100415760003560e01c806331feb67114610046578063689e1c0314610077578063ebd8c4c8146100a9575b600080fd5b610060600480360381019061005b9190610568565b6100c5565b60405161006e9291906105ca565b60405180910390f35b610091600480360381019061008c9190610568565b6101a3565b6040516100a09392919061067b565b60405180910390f35b6100c360048036038101906100be91906106e5565b61026b565b005b60008060008054906101000a900473ffffffffffffffffffffffffffffffffffffffff1673ffffffffffffffffffffffffffffffffffffffff163373ffffffffffffffffffffffffffffffffffffffff1614610156576040517f08c379a000000000000000000000000000000000000000000000000000000000815260040161014d906107a0565b60405180910390fd5b60018360405161016691906107fc565b90815260200160405180910390206001015460018460405161018891906107fc565b90815260200160405180910390206002015491509150915091565b6001818051602081018201805184825260208301602085012081835280955050505050506000915090508060000180546101dc90610842565b80601f016020809104026020016040519081016040528092919081815260200182805461020890610842565b80156102555780601f1061022a57610100808354040283529160200191610255565b820191906000526020600020905b81548152906001019060200180831161023857829003601f168201915b5050505050908060010154908060020154905083565b60008054906101000a900473ffffffffffffffffffffffffffffffffffffffff1673ffffffffffffffffffffffffffffffffffffffff163373ffffffffffffffffffffffffffffffffffffffff16146102f9576040517f08c379a00000000000000000000000000000000000000000000000000000000081526004016102f0906107a0565b60405180910390fd5b60405180606001604052808481526020018381526020018281525060018460405161032491906107fc565b9081526020016040518091039020600082015181600001908051906020019061034e92919061036b565b506020820151816001015560408201518160020155905050505050565b82805461037790610842565b90600052602060002090601f01602090048101928261039957600085556103e0565b82601f106103b257805160ff19168380011785556103e0565b828001600101855582156103e0579182015b828111156103df5782518255916020019190600101906103c4565b5b5090506103ed91906103f1565b5090565b5b8082111561040a5760008160009055506001016103f2565b5090565b6000604051905090565b600080fd5b600080fd5b600080fd5b600080fd5b6000601f19601f8301169050919050565b7f4e487b7100000000000000000000000000000000000000000000000000000000600052604160045260246000fd5b6104758261042c565b810181811067ffffffffffffffff821117156104945761049361043d565b5b80604052505050565b60006104a761040e565b90506104b3828261046c565b919050565b600067ffffffffffffffff8211156104d3576104d261043d565b5b6104dc8261042c565b9050602081019050919050565b82818337600083830152505050565b600061050b610506846104b8565b61049d565b90508281526020810184848401111561052757610526610427565b5b6105328482856104e9565b509392505050565b600082601f83011261054f5761054e610422565b5b813561055f8482602086016104f8565b91505092915050565b60006020828403121561057e5761057d610418565b5b600082013567ffffffffffffffff81111561059c5761059b61041d565b5b6105a88482850161053a565b91505092915050565b6000819050919050565b6105c4816105b1565b82525050565b60006040820190506105df60008301856105bb565b6105ec60208301846105bb565b9392505050565b600081519050919050565b600082825260208201905092915050565b60005b8381101561062d578082015181840152602081019050610612565b8381111561063c576000848401525b50505050565b600061064d826105f3565b61065781856105fe565b935061066781856020860161060f565b6106708161042c565b840191505092915050565b600060608201905081810360008301526106958186610642565b90506106a460208301856105bb565b6106b160408301846105bb565b949350505050565b6106c2816105b1565b81146106cd57600080fd5b50565b6000813590506106df816106b9565b92915050565b6000806000606084860312156106fe576106fd610418565b5b600084013567ffffffffffffffff81111561071c5761071b61041d565b5b6107288682870161053a565b9350506020610739868287016106d0565b925050604061074a868287016106d0565b9150509250925092565b7f4e6f74204f776e65720000000000000000000000000000000000000000000000600082015250565b600061078a6009836105fe565b915061079582610754565b602082019050919050565b600060208201905081810360008301526107b98161077d565b9050919050565b600081905092915050565b60006107d6826105f3565b6107e081856107c0565b93506107f081856020860161060f565b80840191505092915050565b600061080882846107cb565b915081905092915050565b7f4e487b7100000000000000000000000000000000000000000000000000000000600052602260045260246000fd5b6000600282049050600182168061085a57607f821691505b6020821081141561086e5761086d610813565b5b5091905056fea26469706673582212208b8984769110232d5d560b4877d0109347893b2dd8f6050426b2e6bd00058b1864736f6c634300080b0033",
  "immutableReferences": {},
  "source": "// SPDX-License-Identifier: MIT\npragma solidity >=0.4.22 <0.9.0;\n\ncontract Owner {\n  address owner;\n  constructor()public{\n    owner = msg.sender;\n  }\n  struct user {\n    string name;\n    uint number;\n    uint age;\n  }\n\n  mapping(string => user) public users;\n\n  function setUser(string memory name, uint number, uint age) public {\n    require(msg.sender == owner, \"Not Owner\");\n    users[name] = user(name, number, age);\n  }\n\n  function getUser(string memory name) public view returns (uint number, uint age) {\n    require(msg.sender == owner, \"Not Owner\");\n    return (users[name].number, users[name].age);\n  }\n}\n",
  "sourcePath": "E:\\Solidity\\Notes\\contracts\\Owner.sol",
  "compiler": {
    "name": "solc",
    "version": "0.8.11+commit.d7f03943.Emscripten.clang"
  },
  "schemaVersion": "3.4.4",
  "updatedAt": "2022-01-27T09:02:43.835Z",
  "devdoc": {
    "kind": "dev",
    "methods": {},
    "version": 1
  },
  "userdoc": {
    "kind": "user",
    "methods": {},
    "version": 1
  }
}